{
  "contractName": "Driver",
  "abi": [
    {
      "constant": true,
      "inputs": [
        {
          "name": "",
          "type": "address"
        }
      ],
      "name": "driversStruct",
      "outputs": [
        {
          "name": "credit",
          "type": "uint256"
        },
        {
          "name": "driverName",
          "type": "bytes32"
        },
        {
          "name": "isStore",
          "type": "uint256"
        }
      ],
      "payable": false,
      "stateMutability": "view",
      "type": "function"
    },
    {
      "constant": false,
      "inputs": [
        {
          "name": "_driver",
          "type": "address"
        },
        {
          "name": "_driverName",
          "type": "bytes32"
        },
        {
          "name": "_credit",
          "type": "uint256"
        }
      ],
      "name": "setDriverInformation",
      "outputs": [],
      "payable": false,
      "stateMutability": "nonpayable",
      "type": "function"
    },
    {
      "constant": true,
      "inputs": [
        {
          "name": "_driver",
          "type": "address"
        }
      ],
      "name": "getDriverInformation",
      "outputs": [
        {
          "name": "",
          "type": "uint256"
        },
        {
          "name": "",
          "type": "bytes32"
        }
      ],
      "payable": false,
      "stateMutability": "view",
      "type": "function"
    },
    {
      "constant": false,
      "inputs": [
        {
          "name": "_driver",
          "type": "address"
        },
        {
          "name": "credit",
          "type": "uint256"
        }
      ],
      "name": "giveCreditForDriver",
      "outputs": [
        {
          "name": "",
          "type": "uint256"
        }
      ],
      "payable": false,
      "stateMutability": "nonpayable",
      "type": "function"
    }
  ],
  "bytecode": "0x608060405234801561001057600080fd5b50610504806100206000396000f300608060405260043610610062576000357c0100000000000000000000000000000000000000000000000000000000900463ffffffff168063012ad3111461006757806349696bfa146100d4578063bfcae5981461013a578063f38e6be814610195575b600080fd5b34801561007357600080fd5b506100a8600480360381019080803573ffffffffffffffffffffffffffffffffffffffff1690602001909291905050506101f6565b604051808481526020018360001916600019168152602001828152602001935050505060405180910390f35b3480156100e057600080fd5b50610115600480360381019080803573ffffffffffffffffffffffffffffffffffffffff169060200190929190505050610220565b6040518083815260200182600019166000191681526020019250505060405180910390f35b34801561014657600080fd5b50610193600480360381019080803573ffffffffffffffffffffffffffffffffffffffff1690602001909291908035600019169060200190929190803590602001909291905050506102b0565b005b3480156101a157600080fd5b506101e0600480360381019080803573ffffffffffffffffffffffffffffffffffffffff1690602001909291908035906020019092919050505061043d565b6040518082815260200191505060405180910390f35b60006020528060005260406000206000915090508060000154908060010154908060020154905083565b6000806000808473ffffffffffffffffffffffffffffffffffffffff1673ffffffffffffffffffffffffffffffffffffffff168152602001908152602001600020600001546000808573ffffffffffffffffffffffffffffffffffffffff1673ffffffffffffffffffffffffffffffffffffffff1681526020019081526020016000206001015491509150915091565b60008060008573ffffffffffffffffffffffffffffffffffffffff1673ffffffffffffffffffffffffffffffffffffffff1681526020019081526020016000206002015414156103a85760018390806001815401808255809150509060018203906000526020600020016000909192909190916101000a81548173ffffffffffffffffffffffffffffffffffffffff021916908373ffffffffffffffffffffffffffffffffffffffff1602179055505060016000808573ffffffffffffffffffffffffffffffffffffffff1673ffffffffffffffffffffffffffffffffffffffff168152602001908152602001600020600201819055505b806000808573ffffffffffffffffffffffffffffffffffffffff1673ffffffffffffffffffffffffffffffffffffffff16815260200190815260200160002060000181905550816000808573ffffffffffffffffffffffffffffffffffffffff1673ffffffffffffffffffffffffffffffffffffffff1681526020019081526020016000206001018160001916905550505050565b6000816000808573ffffffffffffffffffffffffffffffffffffffff1673ffffffffffffffffffffffffffffffffffffffff168152602001908152602001600020600001600082825401925050819055506000808473ffffffffffffffffffffffffffffffffffffffff1673ffffffffffffffffffffffffffffffffffffffff168152602001908152602001600020600001549050929150505600a165627a7a72305820783dc058dd17d8322b5126780aa9cf180c88fdcdb694c46877b7ce57f2db47f70029",
  "source": "pragma solidity ^0.4.16;\n\n// Every mobile has their own contract name !\ncontract Driver {  \n    struct Drivers{\n        uint credit ;     \n        bytes32 driverName;\n        uint isStore; \n    }\n\n    mapping(address => Drivers) public driversStruct;\n    address[] driverList;\n    \n    function setDriverInformation(address _driver,bytes32 _driverName, uint256 _credit) \n        public \n    {\n        if(driversStruct[_driver].isStore == 0) {\n            driverList.push(_driver);\n            driversStruct[_driver].isStore = 1;\n        }\n        driversStruct[_driver].credit = _credit;\n        driversStruct[_driver].driverName = _driverName;\n    }\n    \n    function getDriverInformation(address _driver) \n        public  \n        view \n        returns (uint, bytes32)\n    {\n        return (\n            driversStruct[_driver].credit,\n            driversStruct[_driver].driverName\n        );\n    }\n    \n    function giveCreditForDriver(address _driver, uint credit) \n        public\n        returns(uint)\n    {\n        driversStruct[_driver].credit += credit;\n        return driversStruct[_driver].credit;\n    }\n}",
  "sourcePath": "/Users/a10000005588/EMoto/emobileContract/contracts/Driver.sol",
  "compiler": {
    "name": "solc",
    "version": "0.4.23+commit.124ca40d.Emscripten.clang"
  },
  "schemaVersion": "2.0.0",
  "updatedAt": "2018-05-26T06:15:44.167Z"
}