{
  "contractName": "Driver",
  "abi": [
    {
      "constant": true,
      "inputs": [
        {
          "name": "",
          "type": "address"
        }
      ],
      "name": "driversStruct",
      "outputs": [
        {
          "name": "credit",
          "type": "uint256"
        },
        {
          "name": "driverName",
          "type": "string"
        }
      ],
      "payable": false,
      "stateMutability": "view",
      "type": "function"
    },
    {
      "constant": false,
      "inputs": [
        {
          "name": "_driver",
          "type": "address"
        },
        {
          "name": "_driverName",
          "type": "string"
        },
        {
          "name": "_credit",
          "type": "uint256"
        }
      ],
      "name": "setDriver",
      "outputs": [
        {
          "name": "",
          "type": "bool"
        }
      ],
      "payable": false,
      "stateMutability": "nonpayable",
      "type": "function"
    },
    {
      "constant": true,
      "inputs": [
        {
          "name": "_driver",
          "type": "address"
        }
      ],
      "name": "getDriver",
      "outputs": [
        {
          "name": "",
          "type": "uint256"
        }
      ],
      "payable": false,
      "stateMutability": "view",
      "type": "function"
    }
  ],
  "bytecode": "0x608060405234801561001057600080fd5b5061056d806100206000396000f300608060405260043610610056576000357c0100000000000000000000000000000000000000000000000000000000900463ffffffff1680628e29aa1461005b578063012ad3111461010657806365c301ab146101c9575b600080fd5b34801561006757600080fd5b506100ec600480360381019080803573ffffffffffffffffffffffffffffffffffffffff169060200190929190803590602001908201803590602001908080601f016020809104026020016040519081016040528093929190818152602001838380828437820191505050505050919291929080359060200190929190505050610220565b604051808215151515815260200191505060405180910390f35b34801561011257600080fd5b50610147600480360381019080803573ffffffffffffffffffffffffffffffffffffffff16906020019092919050505061032f565b6040518083815260200180602001828103825283818151815260200191508051906020019080838360005b8381101561018d578082015181840152602081019050610172565b50505050905090810190601f1680156101ba5780820380516001836020036101000a031916815260200191505b50935050505060405180910390f35b3480156101d557600080fd5b5061020a600480360381019080803573ffffffffffffffffffffffffffffffffffffffff1690602001909291905050506103eb565b6040518082815260200191505060405180910390f35b600060018490806001815401808255809150509060018203906000526020600020016000909192909190916101000a81548173ffffffffffffffffffffffffffffffffffffffff021916908373ffffffffffffffffffffffffffffffffffffffff16021790555050816000808673ffffffffffffffffffffffffffffffffffffffff1673ffffffffffffffffffffffffffffffffffffffff16815260200190815260200160002060000181905550826000808673ffffffffffffffffffffffffffffffffffffffff1673ffffffffffffffffffffffffffffffffffffffff168152602001908152602001600020600101908051906020019061032392919061049c565b50600190509392505050565b6000602052806000526040600020600091509050806000015490806001018054600181600116156101000203166002900480601f0160208091040260200160405190810160405280929190818152602001828054600181600116156101000203166002900480156103e15780601f106103b6576101008083540402835291602001916103e1565b820191906000526020600020905b8154815290600101906020018083116103c457829003601f168201915b5050505050905082565b600060018290806001815401808255809150509060018203906000526020600020016000909192909190916101000a81548173ffffffffffffffffffffffffffffffffffffffff021916908373ffffffffffffffffffffffffffffffffffffffff160217905550506000808373ffffffffffffffffffffffffffffffffffffffff1673ffffffffffffffffffffffffffffffffffffffff168152602001908152602001600020600001549050919050565b828054600181600116156101000203166002900490600052602060002090601f016020900481019282601f106104dd57805160ff191683800117855561050b565b8280016001018555821561050b579182015b8281111561050a5782518255916020019190600101906104ef565b5b509050610518919061051c565b5090565b61053e91905b8082111561053a576000816000905550600101610522565b5090565b905600a165627a7a72305820b9cfa4c0ce25a3f16dcb197b6bae837ca23ebbecd9a1b80749399dbb670452430029",
  "source": "pragma solidity ^0.4.16;\n\n// Every mobile has their own contract name !\ncontract Driver {  \n    struct Drivers{\n        uint256 credit ;      // -5~5\n        string driverName;    //司機名稱\n    }\n    \n    mapping(address => Drivers) public driversStruct;\n    address[] driverList;\n    \n    function setDriver(address _driver,string _driverName , uint256 _credit) public returns(bool){\n        driverList.push(_driver);\n        driversStruct[_driver].credit = _credit;\n        driversStruct[_driver].driverName = _driverName;\n        return true;\n    }\n    \n    function getDriver(address _driver) public  constant returns (uint256){\n        driverList.push(_driver);\n        return driversStruct[_driver].credit;\n    }\n}",
  "sourcePath": "/Users/a10000005588/EMoto/Contract/contracts/Driver.sol",
  "compiler": {
    "name": "solc",
    "version": "0.4.23+commit.124ca40d.Emscripten.clang"
  },
  "schemaVersion": "2.0.0",
  "updatedAt": "2018-05-03T09:49:45.474Z"
}