{
  "contractName": "Fund",
  "abi": [
    {
      "constant": true,
      "inputs": [
        {
          "name": "",
          "type": "address"
        }
      ],
      "name": "investorsStruct",
      "outputs": [
        {
          "name": "name",
          "type": "bytes32"
        },
        {
          "name": "funds",
          "type": "uint256"
        }
      ],
      "payable": false,
      "stateMutability": "view",
      "type": "function"
    },
    {
      "payable": true,
      "stateMutability": "payable",
      "type": "fallback"
    },
    {
      "constant": false,
      "inputs": [
        {
          "name": "_investor",
          "type": "address"
        },
        {
          "name": "_investorName",
          "type": "bytes32"
        },
        {
          "name": "_fund",
          "type": "uint256"
        }
      ],
      "name": "setInvestors",
      "outputs": [
        {
          "name": "",
          "type": "bool"
        }
      ],
      "payable": true,
      "stateMutability": "payable",
      "type": "function"
    },
    {
      "constant": true,
      "inputs": [],
      "name": "getInvestorCount",
      "outputs": [
        {
          "name": "",
          "type": "uint256"
        }
      ],
      "payable": false,
      "stateMutability": "view",
      "type": "function"
    },
    {
      "constant": true,
      "inputs": [
        {
          "name": "index",
          "type": "address"
        }
      ],
      "name": "getInvestors",
      "outputs": [
        {
          "name": "",
          "type": "bytes32"
        },
        {
          "name": "",
          "type": "uint256"
        }
      ],
      "payable": false,
      "stateMutability": "view",
      "type": "function"
    },
    {
      "constant": true,
      "inputs": [],
      "name": "getTotalProfit",
      "outputs": [
        {
          "name": "",
          "type": "uint256"
        }
      ],
      "payable": false,
      "stateMutability": "view",
      "type": "function"
    },
    {
      "constant": true,
      "inputs": [],
      "name": "getDividendsValue",
      "outputs": [
        {
          "name": "",
          "type": "uint256"
        }
      ],
      "payable": false,
      "stateMutability": "view",
      "type": "function"
    },
    {
      "constant": false,
      "inputs": [
        {
          "name": "precision",
          "type": "uint256"
        }
      ],
      "name": "refund",
      "outputs": [],
      "payable": false,
      "stateMutability": "nonpayable",
      "type": "function"
    }
  ],
  "bytecode": "0x608060405268056bc75e2d631000006000556005600155602860025534801561002757600080fd5b506106c1806100376000396000f300608060405260043610610083576000357c0100000000000000000000000000000000000000000000000000000000900463ffffffff1680630d51394514610085578063278ecde1146100b057806365b65b25146100dd578063960524e3146101435780639b975b981461016e578063a9a4cbcc146101d4578063ec259c89146101ff575b005b34801561009157600080fd5b5061009a610265565b6040518082815260200191505060405180910390f35b3480156100bc57600080fd5b506100db6004803603810190808035906020019092919050505061029f565b005b3480156100e957600080fd5b5061011e600480360381019080803573ffffffffffffffffffffffffffffffffffffffff1690602001909291905050506103fe565b6040518083600019166000191681526020018281526020019250505060405180910390f35b34801561014f57600080fd5b50610158610422565b6040518082815260200191505060405180910390f35b6101ba600480360381019080803573ffffffffffffffffffffffffffffffffffffffff16906020019092919080356000191690602001909291908035906020019092919050505061042f565b604051808215151515815260200191505060405180910390f35b3480156101e057600080fd5b506101e9610595565b6040518082815260200191505060405180910390f35b34801561020b57600080fd5b50610240600480360381019080803573ffffffffffffffffffffffffffffffffffffffff1690602001909291905050506105b4565b6040518083600019166000191681526020018281526020019250505060405180910390f35b60008060003073ffffffffffffffffffffffffffffffffffffffff1631915061029360646002546003610646565b82029050809250505090565b6000806000806102ad610265565b9350600054841115156102bf57600080fd5b6102cc8486600a0a61067f565b9250600091505b6004805490508210156103f757610366600360006004858154811015156102f657fe5b9060005260206000200160009054906101000a900473ffffffffffffffffffffffffffffffffffffffff1673ffffffffffffffffffffffffffffffffffffffff1673ffffffffffffffffffffffffffffffffffffffff168152602001908152602001600020600101548587610646565b905060048281548110151561037757fe5b9060005260206000200160009054906101000a900473ffffffffffffffffffffffffffffffffffffffff1673ffffffffffffffffffffffffffffffffffffffff166108fc8285029081150290604051600060405180830381858888f193505050501580156103e9573d6000803e3d6000fd5b5081806001019250506102d3565b5050505050565b60036020528060005260406000206000915090508060000154908060010154905082565b6000600480549050905090565b6000670de0b6b3a764000082101561044657600080fd5b6000600360008673ffffffffffffffffffffffffffffffffffffffff1673ffffffffffffffffffffffffffffffffffffffff1681526020019081526020016000206001015414156104f85760048490806001815401808255809150509060018203906000526020600020016000909192909190916101000a81548173ffffffffffffffffffffffffffffffffffffffff021916908373ffffffffffffffffffffffffffffffffffffffff160217905550505b82600360008673ffffffffffffffffffffffffffffffffffffffff1673ffffffffffffffffffffffffffffffffffffffff168152602001908152602001600020600001816000191690555081600360008673ffffffffffffffffffffffffffffffffffffffff1673ffffffffffffffffffffffffffffffffffffffff16815260200190815260200160002060010181905550600190509392505050565b60003073ffffffffffffffffffffffffffffffffffffffff1631905090565b600080600360008473ffffffffffffffffffffffffffffffffffffffff1673ffffffffffffffffffffffffffffffffffffffff16815260200190815260200160002060000154600360008573ffffffffffffffffffffffffffffffffffffffff1673ffffffffffffffffffffffffffffffffffffffff1681526020019081526020016000206001015491509150915091565b600080600060018401600a0a86029150600a6005868481151561066557fe5b040181151561067057fe5b04905080925050509392505050565b6000818381151561068c57fe5b049050929150505600a165627a7a72305820523e5f1999faaebc9ffd1be680d01db435e613f6314afcef74392ac9a92386d40029",
  "source": "pragma solidity ^0.4.16;\n\nimport \"./SafeMath.sol\";\n\ncontract Fund {\n    /*\n       Problem:\n         1. For couting fund. Calculation will take too mush gas.\n         2. How to control the amount of who has hold the EMO tokens ?\n    */\n    \n    uint initialFund = 100000000000000000000; // 100 ether\n    uint companyFee = 5;\n    uint dividendsRatio = 40; // stock dividens for investors.\n    \n    struct Investors {\n        bytes32 name;  // (up to 32 bytes)\n        uint256 funds; // check how many cash amount of investors\n    }\n    \n    mapping(address => Investors) public investorsStruct;\n    address[] investorsList; // list of question keys so we can enumerate them\n \n    function setInvestors(address _investor, bytes32 _investorName, uint256 _fund) \n        public \n        payable\n        returns(bool) \n    {\n        if(_fund < 1000000000000000000) {\n            revert();\n        }\n        \n        // if no data in list, push into the investorsList...\n        if(investorsStruct[_investor].funds == 0) {\n            investorsList.push(_investor);\n        }\n        \n        investorsStruct[_investor].name = _investorName;\n        investorsStruct[_investor].funds = _fund;\n        \n        return true;\n    }\n    \n    function getInvestorCount() \n        public \n        constant \n        returns(uint) \n    {\n        return investorsList.length;\n    }\n    \n    function getInvestors (address index) \n        public \n        constant \n        returns(bytes32, uint256) \n    {\n        return (investorsStruct[index].name, investorsStruct[index].funds);\n    }\n    \n    function getTotalProfit()\n        public\n        constant\n        returns(uint)\n    {\n        return address(this).balance;\n    }\n    \n    // Calulate Dividends.\n    function getDividendsValue() \n        public \n        constant \n        returns(uint) \n    {\n        uint funds = address(this).balance;\n        uint dividens = funds * SafeMath.percent(100, dividendsRatio, 3);\n        return dividens;\n    }\n    \n    // Stock Dividend from Retained Earnings\n    // redistributed profit to all the investors.\n    function refund(uint precision) \n        public \n    {\n        uint Profit = getDividendsValue();\n        if(Profit <= initialFund) {\n            revert();\n        }\n        uint ProfitUnit = SafeMath.safeDiv(Profit, 10 ** precision);\n      \n        // repay all the money to every invenstor\n        for (uint i = 0; i <  investorsList.length; i++) {\n            // Investors[0] for company investors[1] for passenger, investors[2] and other are investors...\n            // Calculate shareholding ratio for each investor.\n            uint ratio = SafeMath.percent(investorsStruct[investorsList[i]].funds, Profit, precision);\n            investorsList[i].transfer(ProfitUnit * ratio);\n        }\n    }\n    \n    function () \n        public \n        payable \n    {\n    }\n}",
  "sourcePath": "/Users/a10000005588/EMoto/emobileContract/contracts/Fund.sol",
  "compiler": {
    "name": "solc",
    "version": "0.4.23+commit.124ca40d.Emscripten.clang"
  },
  "schemaVersion": "2.0.0",
  "updatedAt": "2018-05-26T06:15:44.163Z"
}