{
  "contractName": "Owenr",
  "abi": [
    {
      "constant": false,
      "inputs": [],
      "name": "Owner",
      "outputs": [],
      "payable": false,
      "stateMutability": "nonpayable",
      "type": "function"
    }
  ],
  "bytecode": "0x6080604052348015600f57600080fd5b5060c68061001e6000396000f300608060405260043610603f576000357c0100000000000000000000000000000000000000000000000000000000900463ffffffff168063b4a99a4e146044575b600080fd5b348015604f57600080fd5b5060566058565b005b336000806101000a81548173ffffffffffffffffffffffffffffffffffffffff021916908373ffffffffffffffffffffffffffffffffffffffff1602179055505600a165627a7a72305820bbe8e9ba7ba8dbd82efa7b0085463c766df4283b43f68da39179b3196ffffce90029",
  "source": "pragma solidity ^0.4.16;\n\ncontract Owenr {\n    // when contract deployed to the blockchain, will triiger this owned() function...\n    function Owner() public { owner = msg.sender; }\n    address owner;\n  \n    modifier onlyOwner {\n        if (msg.sender != owner)\n            revert();\n        _;\n    }\n}",
  "sourcePath": "/Users/a10000005588/EMoto/emobileContract/contracts/Owner.sol",
  "compiler": {
    "name": "solc",
    "version": "0.4.23+commit.124ca40d.Emscripten.clang"
  },
  "schemaVersion": "2.0.0",
  "updatedAt": "2018-05-12T07:38:28.846Z"
}